{
  "contractName": "CalculateAvg",
  "abi": [
    {
      "constant": true,
      "inputs": [],
      "name": "nextId",
      "outputs": [
        {
          "name": "",
          "type": "uint256"
        }
      ],
      "payable": false,
      "stateMutability": "view",
      "type": "function"
    },
    {
      "constant": true,
      "inputs": [
        {
          "name": "",
          "type": "uint256"
        }
      ],
      "name": "sensor_values",
      "outputs": [
        {
          "name": "id",
          "type": "uint256"
        },
        {
          "name": "name",
          "type": "string"
        },
        {
          "name": "value",
          "type": "uint256"
        }
      ],
      "payable": false,
      "stateMutability": "view",
      "type": "function"
    },
    {
      "constant": false,
      "inputs": [
        {
          "name": "name",
          "type": "string"
        },
        {
          "name": "value",
          "type": "uint256"
        }
      ],
      "name": "addSensorValue",
      "outputs": [],
      "payable": false,
      "stateMutability": "nonpayable",
      "type": "function"
    },
    {
      "constant": true,
      "inputs": [
        {
          "name": "name",
          "type": "string"
        }
      ],
      "name": "calculateAvgForSensor",
      "outputs": [
        {
          "name": "",
          "type": "string"
        },
        {
          "name": "",
          "type": "uint256"
        }
      ],
      "payable": false,
      "stateMutability": "view",
      "type": "function"
    },
    {
      "constant": true,
      "inputs": [
        {
          "name": "a",
          "type": "string"
        },
        {
          "name": "b",
          "type": "string"
        }
      ],
      "name": "compareString",
      "outputs": [
        {
          "name": "",
          "type": "bool"
        }
      ],
      "payable": false,
      "stateMutability": "pure",
      "type": "function"
    }
  ],
  "bytecode": "0x6080604052600060015534801561001557600080fd5b506107c7806100256000396000f30060806040526004361061006d576000357c0100000000000000000000000000000000000000000000000000000000900463ffffffff16806333f5088f1461007257806361b8ce8c1461015b57806375b83187146101865780639d6b16d71461024d578063c33fc192146102c0575b600080fd5b34801561007e57600080fd5b506100d9600480360381019080803590602001908201803590602001908080601f0160208091040260200160405190810160405280939291908181526020018383808284378201915050505050509192919290505050610374565b6040518080602001838152602001828103825284818151815260200191508051906020019080838360005b8381101561011f578082015181840152602081019050610104565b50505050905090810190601f16801561014c5780820380516001836020036101000a031916815260200191505b50935050505060405180910390f35b34801561016757600080fd5b506101706104b1565b6040518082815260200191505060405180910390f35b34801561019257600080fd5b50610233600480360381019080803590602001908201803590602001908080601f0160208091040260200160405190810160405280939291908181526020018383808284378201915050505050509192919290803590602001908201803590602001908080601f01602080910402602001604051908101604052809392919081815260200183838082843782019150505050505091929192905050506104b7565b604051808215151515815260200191505060405180910390f35b34801561025957600080fd5b506102be600480360381019080803590602001908201803590602001908080601f016020809104026020016040519081016040528093929190818152602001838380828437820191505050505050919291929080359060200190929190505050610590565b005b3480156102cc57600080fd5b506102eb60048036038101908080359060200190929190505050610625565b6040518084815260200180602001838152602001828103825284818151815260200191508051906020019080838360005b8381101561033757808201518184015260208101905061031c565b50505050905090810190601f1680156103645780820380516001836020036101000a031916815260200191505b5094505050505060405180910390f35b60606000806000806000925060009150600090505b600080549050811015610498576104586000828154811015156103a857fe5b90600052602060002090600302016001018054600181600116156101000203166002900480601f01602080910402602001604051908101604052809291908181526020018280546001816001161561010002031660029004801561044d5780601f106104225761010080835404028352916020019161044d565b820191906000526020600020905b81548152906001019060200180831161043057829003601f168201915b5050505050876104b7565b1561048b5760008181548110151561046c57fe5b9060005260206000209060030201600201548301925081806001019250505b8080600101915050610389565b8582848115156104a457fe5b0494509450505050915091565b60015481565b6000816040518082805190602001908083835b6020831015156104ef57805182526020820191506020810190506020830392506104ca565b6001836020036101000a038019825116818451168082178552505050505050905001915050604051809103902060001916836040518082805190602001908083835b6020831015156105565780518252602082019150602081019050602083039250610531565b6001836020036101000a03801982511681845116808217855250505050505090500191505060405180910390206000191614905092915050565b6000606060405190810160405280600154815260200184815260200183815250908060018154018082558091505090600182039060005260206000209060030201600090919290919091506000820151816000015560208201518160010190805190602001906106019291906106f6565b50604082015181600201555050506001600081548092919060010191905055505050565b60008181548110151561063457fe5b9060005260206000209060030201600091509050806000015490806001018054600181600116156101000203166002900480601f0160208091040260200160405190810160405280929190818152602001828054600181600116156101000203166002900480156106e65780601f106106bb576101008083540402835291602001916106e6565b820191906000526020600020905b8154815290600101906020018083116106c957829003601f168201915b5050505050908060020154905083565b828054600181600116156101000203166002900490600052602060002090601f016020900481019282601f1061073757805160ff1916838001178555610765565b82800160010185558215610765579182015b82811115610764578251825591602001919060010190610749565b5b5090506107729190610776565b5090565b61079891905b8082111561079457600081600090555060010161077c565b5090565b905600a165627a7a723058205d5db71073a881dbb89348993ad8aaeb73afe790b90c3f9bc6b1e822c98018780029",
  "source": " pragma solidity ^0.4.0;\n\n contract CalculateAvg {\n     \n     struct SensorValue {\n         uint id;\n         string name;\n         uint value;\n     }\n\n     SensorValue[] public sensor_values;\n     uint public nextId = 0;\n     // Function top add sensor value\n\n     function addSensorValue(string memory name, uint value) public {\n            sensor_values.push(SensorValue(nextId, name, value));\n            nextId++;\n     }\n     \n    function calculateAvgForSensor(string memory name) public view returns (string , uint) {\n        uint avg = 0;\n        uint total = 0;\n        for(uint i = 0; i < sensor_values.length; i++)\n        {\n            if(compareString(sensor_values[i].name, name))\n            {\n                avg += sensor_values[i].value;\n                total++;\n            }\n        }\n        return (name, avg/total);\n    }\n\n    function compareString(string a, string b) public pure returns (bool) {\n        return keccak256(bytes(a)) == keccak256(bytes(b));\n    }\n\n\n }",
  "sourcePath": "/home/daud/semester_project/bare-box/contracts/CalculateAvg.sol",
  "compiler": {
    "name": "solc",
    "version": "0.4.24+commit.e67f0147.Emscripten.clang"
  },
  "schemaVersion": "2.0.1",
  "updatedAt": "2021-06-13T13:59:48.273Z"
}